:020000040800F2
:10000000A01A01248904000879FD000881F2000883
:1000100071FD0008212D0008A15D0108000000000D
:10002000000000000000000000000000410801087E
:10003000393A00080000000081020108590B01084C
:10004000A7040008A7040008A7040008A7040008E4
:10005000A7040008A7040008A7040008A7040008D4
:10006000A7040008A7040008A7040008392F000807
:10007000492F0008592F0008692F0008792F000820
:10008000892F0008992F0008A7040008D13C000818
:10009000E13C0008A7040008F13C0008A7040008A0
:1000A000A7040008A7040008A7040008A704000884
:1000B000A7040008A7040008A7040008A704000874
:1000C000A7040008A7040008A7040008A704000864
:1000D000A7040008A704000821230108A7040008BA
:1000E000A7040008A704000800000000A7040008F7
:1000F000A7040008A7040008A7040008A92F000807
:10010000A7040008A7040008A7040008A704000823
:10011000A7040008890F0108B10D0108A704000811
:10012000A7040008A7040008A7040008A704000803
:10013000A7040008A7040008A7040008A7040008F3
:1001400000000000000000000000000000000000AF
:10015000A7040008A7040008A7040008A7040008D3
:10016000A7040008A7040008A7040008A7040008C3
:10017000A7040008F1FD0008A70400080000000023
:10018000A7040008A7040008A7040008990F0108A5
:10019000A7040008A7040008A7040008A704000893
:1001A000A7040008A7040008A70400080000000036
:1001B000A7040008A7040008A7040008A704000873
:1001C000A7040008A70400080000000000000000C9
:1001D0000000000000000000A7040008000000006C
:1001E000000000000000000000000000000000000F
:1001F0000000000000000000A7040008A704000899
:10020000A7040008A704000800000000A7040008D5
:10021000A7040008A7040008A7040008A704000812
:10022000A704000800000000A70400080000000068
:10023000A7040008A704000800000000A7040008A5
:10024000A7040008A7040008A7040008A7040008E2
:10025000A7040008A7040008A7040008A7040008D2
:10026000A7040008A7040008A7040008A7040008C2
:10027000A7040008A7040008A70400080000000065
:10028000A7040008A7040008A7040008A7040008A2
:1002900000000000A7040008A704000800000000F8
:1002A00000000000A7040008A7040008A90F010827
:1002B00011230108A7040008A7040008013D000855
:1002C000A7040008A7040008A704000800F002F82B
:1002D00000F0CAF814A696E8000CB244B344DA451C
:1002E00001D100F0C1F8BAE80F000FA696E830007F
:1002F000A5EB040504EB0607AAEB0704A7F1010729
:100300004FEA15154FEA3414A4F10104AC4201D3AD
:1003100000F0AAF813F0010F18BFFB1A43F0010315
:1003200000F001F8DBE71847C8100200E8100200EF
:100330000A444FF0000C10F8013B13F0070408BF0B
:1003400010F8014B1D1108BF10F8015B641E05D0A9
:1003500010F8016B641E01F8016BF9D113F0080F5E
:100360001EBF10F8014BAD1C0C1B09D16D1E58BFF0
:1003700001F801CBFAD505E014F8016B01F8016B27
:100380006D1EF9D59142D6D370470000704700002A
:100390000023002400250026103A28BF78C1FBD88E
:1003A000520728BF30C148BF0B6070476E2900F06C
:1003B000C582702900F00984662920F0F784652938
:1003C00020F0F484672920F0F184612920F0F08482
:1003D00003681B0A28BF41F08001692900F072827E
:1003E000642900F06F82752900F06C826F2900F09B
:1003F0009783782900F0D583E92900F03183E42937
:1004000000F02E83F52900F02B83EF2900F0948370
:10041000F82900F0D4830368DB0928BF41F080018C
:10042000632901F03D84732901F04284E32901F03E
:100430004D84F32901F05284002070471FB520F04D
:10044000A5FC02F013F904000020002120F080FC3C
:10045000401C60600020002120F064FCE06000F09F
:10046000B9F91FBD10B510BD02F0D3F81146FFF762
:10047000E5FF1CF0F9FE02F0C7F903B4FFF7F2FF45
:1004800003BC02F043FC00000A4880470A4880474A
:100490000A480047FEE7FEE7FEE7FEE7FEE7FEE765
:1004A000FEE7FEE7FEE7FEE705480649064A074B7A
:1004B00070470000A93C0008490C0108CD02000863
:1004C000A0BA0024A01A0124A0DA0024A0DA002493
:1004D00053EA020C00F069802DE9F04B4FF0000662
:1004E000002B1FBFB3FA83F503FA05F424FA05F6CF
:1004F0005E4012BF1643B2FA82F502FA05F4C5F166
:1005000020051EBF22FA05FC44EA0C04203556EAF9
:10051000044C4FEA144418BF641C4FF000084FF01D
:100520000009904271EB030C39D3002919BFB1FACD
:1005300081F701FA07F6B0FA80F700FA07F6C7F17B
:1005400020071EBF20FA07FC46EA0C062037B6FB40
:10055000F4FCA7EB0507103F07F01F0BCBF12006BB
:100560002CFA06F60CFA0BFB44BFB3460026202FEC
:10057000A4BF5E464FF0000B5BEA060C08BF4FF0CD
:10058000010B19EB0B0948EB0608ABFB027C06FBE1
:1005900002CC0BFB03CCC01B71EB0C01C1E70B467B
:1005A000024641464846BDE8F08B13B5084318BFE4
:1005B0004FF0FF300146AFF30080BDE81C407047AC
:1005C0000FB41CB50C0007AA009007D04142A1420D
:1005D00002D32044401E01E04FF0FF30074B7B4424
:1005E00069460190069800F0C2F90021002C01D064
:1005F000009A11701CBC5DF814FB0000B3030000EE
:100600000FB400B58DB010A9099000910B904FF078
:10061000FF300A9000200C90064878440690064867
:1006200078446A4607900F9909A800F065FD0DB05F
:100630005DF814FBFB0A0000130B0000032A40F2D4
:10064000308010F0030C00F0158011F8013BBCF174
:10065000020F624498BF11F801CB00F8013B38BF8C
:1006600011F8013BA2F1040298BF00F801CB38BF9A
:1006700000F8013B11F0030300F02580083AC0F0B8
:10068000088051F8043B083A51F804CBA0E8081060
:10069000F5E7121D5CBF51F8043B40F8043BAFF393
:1006A0000080D20724BF11F8013B11F801CB48BFED
:1006B00011F8012B24BF00F8013B00F801CB48BF23
:1006C00000F8012B704710B5203AC0F00B80B1E85C
:1006D0001850A0E81850B1E81850A0E81850203A77
:1006E000BFF4F5AF5FEA027C24BFB1E81850A0E880
:1006F000185044BF18C918C0BDE810405FEA827C9A
:1007000024BF51F8043B40F8043B08BF7047D207B0
:1007100028BF31F8023B48BF11F8012B28BF20F851
:10072000023B48BF00F8012B704702F0FF0343EA89
:10073000032242EA024200F024B84FF000020429EA
:10074000C0F0128010F0030C00F01B80CCF1040C00
:10075000BCF1020F18BF00F8012BA8BF20F8022B34
:10076000A1EB0C0100F00DB85FEAC17C24BF00F8DA
:10077000012B00F8012B48BF00F8012B70474FF008
:10078000000200B5134694469646203922BFA0E8E1
:100790000C50A0E80C50B1F12001BFF4F7AF0907ED
:1007A00028BFA0E80C5048BF0CC05DF804EB8900DE
:1007B00028BF40F8042B08BF704748BF20F8022B21
:1007C00011F0804F18BF00F8012B70477047704739
:1007D0007047000008487CB578440090074878448A
:1007E000009C0546019004E02046016808448047CB
:1007F000241DAC42F8D17CBD700D0200A20D020098
:1008000070B5044685690068C10601D5302600E050
:100810002026C00707D070BDD4E90121304690479B
:10082000206A401C20626D1EF6D570BD70B504466E
:1008300085690078C00707D170BDD4E90121202067
:100840009047206A401C20626D1EF6D570BD096875
:100850004A0501D540B27047C905FCD500B27047C2
:1008600009684A0501D5C0B27047C905FCD580B2F8
:10087000704770B50C460546012A05D028788006D9
:1008800000D5EA69002302E0012305E05B1C9342E6
:1008900002D2E05C0028F9D1A869E618C01AA86164
:1008A000286A184428622846FFF7AAFF04E0D5E921
:1008B000012114F8010B9047B442F8D32846FFF702
:1008C000B5FF70BD2DE9F04106460024106875297A
:1008D000314616A510D0FFF7BAFF002802DA4042D1
:1008E00013A507E031688A0701D512A502E0490780
:1008F00004D511A5012401E0FFF7B2FF00210A226F
:1009000006F1240709E0B0FBF2FCB0FBF2F302FBB6
:100910001C00303078541846491C0028F3D1234677
:100920002A463046BDE8F04100F0CABD0000000094
:100930002D0000002B00000020000000116802685C
:10094000006A530501D508700AE0D30501D5088077
:1009500006E0130603D5C217C1E9000200E00860F3
:100960000120704701694A1C02610878704700B590
:100970008FB0CDE901310021059105497944CDE9D8
:1009800003101146684600F02BF90FB000BD0000BF
:10099000E5FFFFFFD1E900239A4202D2531C0B600E
:1009A000107070472DE9FF5F15468A460446DFF850
:1009B000AC80F8440027D8E900103E46CDE900108D
:1009C00010E03AF816106A4602A801F0FEFD411C3C
:1009D00007D02178890603D5E269391891420DD8EC
:1009E0000744761C2078800602D5E069B84205DD10
:1009F000AE42E6DB3AF816000028E2D1A069C01B3F
:100A0000A0612046FFF7FCFED8E90010CDE90010F8
:100A1000002017E03AF818106A4602A801F0D5FD48
:100A2000B0F1FF3F81460BD000250DF1080B05E02A
:100A3000D4E901211BF8050090476D1C4D45F7D303
:100A400008F10100B0428046E4DB206A38442062AD
:100A50002046FFF7EBFEBDE8FF9F0000FA0402000E
:100A60002DE9F0418046D21D22F007020025D2E98F
:100A70000002F52915A614D0011E72F1000106DA54
:100A80000023D0EB030063EB020211A608E0D8F8C4
:100A900000108B0701D50FA602E0490701D50EA66D
:100AA00001251146002408F1240704E000F0BAFCF7
:100AB00030323A55641C50EA0102F7D12B463246D7
:100AC00021464046BDE8F04100F0FABC00000000BD
:100AD0002D0000002B0000002000000030B4002199
:100AE00000F1240408E002F00705D208303542EA9C
:100AF0004372DB086554491C52EA0305F3D10468CC
:100B0000002310A2250708D504F020040C4304D0CC
:100B1000C46901230CA2641EC46130BC00F0D0BCC7
:100B200010B5044621461068FFF79AFE024620469B
:100B3000BDE810400023D1E7D21D22F00701D1E922
:100B40000023CBE70000000030000000F0B40D46A9
:100B50000188090502D5214C7C4402E01F4C7C44ED
:100B60000E34002100F1240608E002F00F071209FC
:100B7000E75D42EA03721B097754491C52EA0307F6
:100B8000F3D102780023120704D5702D06D009B1E5
:100B9000022311342246F0BC00F092BC0123103431
:100BA000F8E770B504460D4621461068FFF758FE79
:100BB000024629462046BDE870400023C6E7D21D04
:100BC00022F00703D3E90023C0E70368126843F06B
:100BD000200303600823C3610023B7E75C0302001E
:100BE0002DE9F05F894604464FF0000ADFF874B142
:100BF000FB44C0F820A02046E1688847002874D054
:100C0000252806D0D4E901219047206A401C2062A3
:100C1000F1E700265F462046E16888472028054620
:100C200007DB312D05D2781910F8200C08B10643E6
:100C3000F1E7B00701D526F00406C4F81CA0002790
:100C4000C4F818A02A2D09D0284620F01DF838B382
:100C500004EB8708303DC8F8185019E059F8041B18
:100C6000204604EB87029161E1688847012F054621
:100C700018D1E069002820DA26F020061DE0D8F817
:100C8000180000EB800005EB40003038C8F8180071
:100C90002046E168884705461FF0F6FF0028EED1A0
:100CA000012F0AD02E2D08D12046E16888477F1CED
:100CB0000546022F46F02006C4DBA069002803DAAF
:100CC000404246F00106A061F00701D026F0100670
:100CD0006C2D0BD0682D09D04C2D39D06A2D35D014
:100CE000742D35D07A2D33D016E038E0E1682F46E8
:100CF00020468847B842054609D16C2F26D04FF4CC
:100D00008060E168064320468847054604E06C2F72
:100D10001AD04FF4807006430DB3A5F14100192895
:100D200002D8203546F400664A4629462046266009
:100D30004E46FFF73BFB80B101280BD0F61D26F095
:100D4000070000F1080956E74020E4E78020D8E7D3
:100D50000020D6E706F104094DE7284652E7206A4D
:100D6000BDE8F09FEC0202002DE9FF4F1C469146C2
:100D70004FF0FF3581B000218A468846D4E90167EB
:100D8000A16902986D1C8847216A8346884700281C
:100D9000F6D1BBF1FF3F0CD0002F26F4C0661ADD60
:100DA000700615D5BBF12B0F0AD0BBF12D0F0FD15B
:100DB00004E04FF0FF3005B0BDE8F08F46F48066E8
:100DC000A16902986D1C88477F1E8346002F02DDB3
:100DD000BBF1300F03D0B9F1000F2AD025E0A16993
:100DE0006D1C02987F1E46F400768847002F8346CC
:100DF00005DDBBF1780F06D0BBF1580F03D0B9F178
:100E0000000F10D011E0B9F1000F02D0B9F1100FAE
:100E10000BD1A1696D1C02987F1E26F400768847CD
:100E20008346102000E0082081464FEAE9700090D8
:100E300017E00A20F8E74346AAFB0928DDF800C0BE
:100E40007F1E03FB098046F4007605F101050AFBCD
:100E50000C0112EB0B0A029841EBEB78A169884771
:100E60008346002F06DD4946584600F03BFF5FEA07
:100E7000000BE0D5E16902988847B00502D46FF015
:100E8000010098E7F00718D1700610D5514670059B
:100E900005D50023D1EB030163EB080200E04246D5
:100EA0002068031D23600068C0E9001205E0206887
:100EB000011D21600068C0E900A828467BE72DE9F4
:100EC000FF5F1D464FF0FF3B91464FF000085F4625
:100ED000D5E90146A96901987F1C8847296A82469D
:100EE00088470028F6D1BAF1FF3F0CD0002E24F439
:100EF000C06419DD600614D5BAF12B0F09D0BAF120
:100F00002D0F0ED103E0584604B0BDE8F09F44F425
:100F10008064A96901987F1C8847761E8246002E4E
:100F200002DDBAF1300F03D0B9F1000F26D032E064
:100F3000A969761E01987F1C44F400748847002E2E
:100F4000824605DDBAF1780F06D0BAF1580F03D00A
:100F5000B9F1000F10D01EE0B9F1000F02D0B9F1C5
:100F6000100F18D1A969761E01987F1C24F4007413
:100F700088478246102002E0082000E00A208146CF
:100F800009E0A96908FB0908761E01987F1C44F452
:100F9000007488478246002E05DD4946504600F021
:100FA000A1FE0028EDDAE96901988847A00502D47E
:100FB0006FF00100A8E7E00725D1600613D56005B2
:100FC00002D5C8F1000000E0404629680A1D2A60E9
:100FD0000968220501D5087015E0220701D50880AF
:100FE00011E008600FE02868011D296000682105F4
:100FF00002D580F8008006E0210702D5A0F8008025
:1010000001E0C0F8008038467EE72DE9FF5F4FF031
:1010100000089946144646469169D2E901A7DDF8D1
:1010200038B001988847054659EA0B0005D009E019
:10103000A1690198761C88470546216A2846884799
:101040000028F5D1681C03D05FEACA7005D015E00E
:101050004FF0FF3004B0BDE8F09F2068011D216013
:10106000D0F800800AE05FEACA7001D108F8015B9D
:10107000A169761C01987F1E88470546002F1ADD5E
:10108000681C18D0B9F1000F0DD0E81705EBD0603F
:10109000421120F01F0059F822102A1A0120904016
:1010A0000142E0D107E0BBF1000FDCD12846216A04
:1010B00088470028D7D0E16901988847BBF1000F25
:1010C00007D1002E05DD5FEACA7002D1002188F841
:1010D0000010A068B84203DDBBF1000F03D017B1C8
:1010E0006FF00100B6E73046B4E700000268114433
:1010F0001378016018467047D16005497944516101
:1011000004497944116200211161114600F0F8BDD3
:10111000EDFFFFFFA9030000426842B1016811F82A
:10112000013B23B1521EC0E900121846704701214D
:10113000C160881E704742685AB1C368016843B9EC
:1011400083688B4205D0491E521CC0E90012002062
:1011500070474FF0FF3070472DE9FF4F4FF0000808
:101160009A461446C146464683B0D2E901B7CDF847
:101170000080CDF80480916904988847109905464D
:101180005AEA010005D009E0A1690498761C884755
:101190000546216A284688470028F5D1681C03D0F7
:1011A0005FEACB7005D02AE04FF0FF3007B0BDE812
:1011B000F08F2068011D2160D0F800801FE002A898
:1011C0006A46E9B201F0E1F9411C07D0801C09D060
:1011D0004FF000095FEACB7007D00AE0E16904989C
:1011E00088473EE04FF0010904E0BDF8081028F8F8
:1011F000021B7F1EA1690498761C88470546002FB4
:101200001ADD681C18D0BAF1000F0DD0E81705EBF5
:10121000D060421120F01F005AF822102A1A012033
:1012200090400142CBD107E010980028C7D1284652
:10123000216A88470028C2D0E16904988847B9F13B
:10124000000F0ED1109830B9002E04DD5FEACB708C
:1012500001D1A8F80000A068B84202DD109818B1CA
:1012600017B16FF00100A1E730469FE72DE9FF4F6E
:101270004FF000089B461446454683B0D2E90196DC
:10128000CDF80080CDF804809169DDF848A004987D
:10129000884707465BEA0A0005D009E0A16904987F
:1012A0006D1C88470746216A384688470028F5D1D3
:1012B000781C03D05FEAC97005D01BE04FF0FF3007
:1012C00007B0BDE8F08F2068011D2160D0F80080D4
:1012D00010E05FEAC97007D16A464046B9B201F032
:1012E00074F9411C31D08044A1696D1C0498761EAC
:1012F00088470746002E14DD781C12D0BBF1000091
:1013000007D03B46DDE9101201F030F90028E0D1AA
:1013100007E0BAF1000FDCD13846216A884700287F
:10132000D7D0E16904988847BAF1000F06D1002DA3
:1013300004DD5FEAC97001D188F80000A068B042FE
:1013400003DDBAF1000F03D016B16FF00100B7E76B
:101350002846B5E72DE9FF5F9B46144600273D462A
:101360009169D2E90196DDF840A00198884780464E
:101370005BEA0A0005D009E0A16901986D1C884765
:101380008046216A404688470028F5D1B8F1FF3FE2
:1013900003D05FEAC97005D014E04FF0FF3004B00D
:1013A000BDE8F09F2068011D216007680AE05FEA40
:1013B000C97001D127F8028BA1696D1C0198761EB6
:1013C00088478046002E15DDB8F1FF3F12D0BBF1F3
:1013D000000007D04346DDE90E1201F0C7F80028EF
:1013E000E5D107E0BAF1000FE1D14046216A884714
:1013F0000028DCD0E16901988847BAF1000F05D1D7
:10140000002D03DD5FEAC97000D13880A068B042CA
:1014100003DDBAF1000F03D016B16FF00100BEE793
:101420002846BCE730B5B0F10A0271F100034FEA7B
:10143000900E4EEA817EB0EB0E0061EB91014FEA17
:10144000101E4EEA017E10EB0E0041EB11114FEA27
:10145000102E4EEA016E10EB0E0041EB11214FEA07
:10146000104E4EEA014E10EB0E0041EB11414018B8
:1014700041F100014FEAD00040EA41704FEAD1014A
:101480004FEA810444EA907410EB800544EB0104B8
:101490006D1944EB0404521BA3414FF0000348BFF5
:1014A0000A3200D530BD401C41F1000130BD10B5FD
:1014B000044601F0D3F80068005D00F0010010BDA3
:1014C0002DE9F0470D4699469246044600F124085E
:1014D0000168880604D5E06921F01001216000E070
:1014E0000120A84201DD471B00E00027A1697A190D
:1014F00002EB0900081AA0612078C00602D4204639
:10150000FFF77EF9002608E0D4E901211AF8060069
:101510009047206A401C761C20624E45F4DB207800
:10152000C0060AD52046FFF76BF906E0D4E9012191
:1015300030209047206A401C2062381EA7F1010726
:10154000F4DC07E0D4E9012118F805009047206A8F
:10155000401C2062281EA5F10105F3DC2046FFF7A0
:1015600065F92078000602D50220BDE8F087012049
:10157000FBE72DE9FF4F0C461E464FF0FF378BB0BF
:10158000D2E90001DDF860800A908A46C1F30A556D
:1015900005B93D46002108464FF00000BAF1000FA2
:1015A00000F4400005DA00EB80004FF4400101EA4E
:1015B00050004FEA9059B9F1010F00DDB9460A9881
:1015C00050EA4A000ED044F61050A5F2FF354543CC
:1015D0002F14B8F1000F1ED07542291E1EDDC9F16F
:1015E00000021CE0B8F1010F4FF0000001D03021E3
:1015F00003E0F24305E02154401CB042FBDB3046DF
:101600000022002121540B99C1F80880C1E9002073
:101610000FB0BDE8F08FBD1B6D1CDEE74A4600DA57
:10162000694206A801F07EF806AB93E8070003AB19
:1016300083E8070050460A991EF002FE8DE8070075
:10164000A0F500501F3800900398002D0ADD42F2EB
:101650001F014A460844002303A9039068461FF06F
:10166000ADF809E0A0F500504A461F38002303A951
:10167000039068461FF0CCF88DE807000004000CCA
:1016800003D04FF0FF30410800E01046B8F1000FE2
:1016900003D00022009215461EE0751E05D4FFF708
:1016A000C1FE303262556D1EF9D5B34601220843A2
:1016B00002D000227F1C04E02078302801D10022D3
:1016C0007F1E002A099784D01DE0112D07DAFFF74D
:1016D000A9FE303262556D1C50EA0102F5D1084373
:1016E00002D00098C8B10EE00021681E05E0235C1E
:1016F000625C63542254401E491C8142F7DBAB46B6
:10170000A81B401E0990002004F80B000B98099AB2
:10171000C0F80880C0E9002B7AE711264FF00008D6
:1017200057E72DE9F04F88460446D21D22F0070105
:1017300091B0D1E90001CDE90A011FF0B5F90246E7
:101740000B98C00F01D02D2007E02068810701D53C
:101750002B2002E0202101EAC000032A099001D0D9
:10176000072A05DB03464146204600F09BFF0BE1BC
:101770002078800601D5E06900E00620B8F1650F09
:10178000814606D0B8F1660F18D0B8F1670F70D156
:1017900031E00020B9F1110F009001DB112301E0CD
:1017A00009F101030AAA01A90CA8FFF7E2FEDDE98D
:1017B0000C70002609F10105834647E001204B46E5
:1017C00000904FF000470AAA01A90CA8FFF7D1FE2C
:1017D000DDE90DB00C995D46002610B909F1010054
:1017E0000D18B9EB050003D4C0F1FF3609F101056E
:1017F000A5EB09002BE0B9F1010F01DA4FF0010967
:101800000020B9F1110F0090484601DD112300E0DE
:1018100003460AAA01A90CA8FFF7ABFEDDE90C708C
:101820004D4600268346207800070AD4AB4500DAEF
:101830005D4601A8012D04DD411911F8011C302974
:1018400007D04F4502DA17F1040F04DA012082466F
:101850000FE06D1EEEE7002F02DCED1B3E4403E0BF
:10186000781CA84200DD7D1CB81B00F1010A4FF076
:1018700000472078000703D4AA4501DB4FF0FF3A68
:101880000021B7F1004F0DF143088DF8431024D02B
:1018900002202B23002F01DA7F422D230A21021E72
:1018A000A0F1010000DC5FB197FBF1FC97FBF1F2C6
:1018B00001FB1C7C17460CF1300C08F801CDEEE75B
:1018C000A8F1010003702188090501D5452100E038
:1018D0006521A0F1010800F8011C09980FA9A1EBEE
:1018E0000807FF1D00B10120411901EBEA70A16951
:1018F0003844081A401EA0612078C00602D4204651
:10190000FEF77EFF099828B1D4E901219047206AAB
:10191000401C20622078C00622D52046FEF770FFCA
:101920001EE0002E04DBB34502DD01A8805D00E06F
:101930003020D4E901219047206A401C2062761CA7
:10194000AAF101005FEA000A0AD100F08FFEC06828
:101950000168405CD4E901219047206A401C206264
:10196000281EA5F10105DCDC07E0D4E9012118F807
:10197000010B9047206A401C2062381EA7F1010726
:10198000F3DC2046FEF752FF032011B041E60000D1
:101990002DE9F04F04460D46D21D22F0070089B014
:1019A000D0E90097484639461FF07EF80246F80F06
:1019B00001D02D2307E02068810701D52B2302E009
:1019C000202101EAC0038DF820300BB1012000E096
:1019D0000020032A824601D0072A04DB294620463C
:1019E00000F060FE3FE12078800601D40D2500E084
:1019F000E569C7F30A560D2D49DA00214FEA175B56
:101A000008464FF00000002F00F4400007DA00EB1A
:101A100080004FF4400100EBD07001EA60008115B6
:101A2000012901DD4FF0FF3100224FEA850CBCF1A6
:101A3000180F06D31346ACF118004FF08052C24085
:101A400003E04FF4801323FA0CF30CF10C0CBCF1FF
:101A5000200F04D3ACF1200C09FA0CF001E007FAD6
:101A60000CF000294FF0004801DD18B90FE00ED14D
:101A700040450CD319EB02095F4121B9404502D121
:101A80009F4329EA0209BBEB175F00D0761C208830
:101A9000000502D57B48784402E07A48784419383A
:101AA00008AA302302F80A30037C0AF10101002E53
:101AB0000AF1020A53546A4602DC4FF0300101E099
:101AC0004FF031014FF001088DF8001002D0A6F25E
:101AD000FF3603E059EA470100D06B4E002D02DCCF
:101AE0002178090704D54FF002082E218DF8011046
:101AF000C44600210BE0C7F303433F01C35C491C0C
:101B00006D1E02F80830052908F1010801DA002DE0
:101B1000F1DC00210CE000EB1973491C1B786D1EF1
:101B2000082902F808304FEA091908F1010801DA1A
:101B3000002DF0DC21688B0602D516E0A8F1010823
:101B4000E04505DD02EB080313F8013C302BF5D02E
:101B5000B8F1000F09DD02EB080313F8013C2E2B4E
:101B600003D1090701D4A8F10108002D05DD3E21AC
:101B700002F808106D1E08F10108407C002E02F8E2
:101B8000080008F1010804DA2D20764202F8080066
:101B900002E02B2002F808000A214FF47A708642F6
:101BA00008F101080BDB96FBF0F3303302F8083044
:101BB00096FBF0F308F1010800FB136601E0642EC8
:101BC0000CDB642096FBF0F3303302F8083096FB10
:101BD000F0F308F1010800FB136601E00A2E06DBB2
:101BE00096FBF1F0303002F8080008F1010896FB8E
:101BF000F1F001FB1060303002F80800A16908F133
:101C0000010808EB050202EB0A00081AA06120781F
:101C1000C00602D42046FEF7F3FD216A08AE01EBB0
:101C20000A00206204E0D4E9012116F8010B904774
:101C3000BAF1010AF7D22078C00602D52046FEF795
:101C4000DFFD6E4609E016F8010B3E280FD0D4E9FF
:101C500001219047206A401C2062B8F10108F2D2AD
:101C60002046FEF7E3FD09B00320BDE8F08F206AAF
:101C70002844206203E0D4E90121302090476D1E02
:101C8000EBD3F8E76AF4010002FCFFFF10B54369EB
:101C900013B1AFF3008001E0FEF7EBFD012010BDB2
:101CA000127800F124010A7000224A700122EDE747
:101CB00011684FF0FF32E9E710B5436913B1AFF394
:101CC000008001E0FEF76EFE012010BD128800F1D9
:101CD000240182840022C2840122EDE711684FF0C2
:101CE000FF32E9E73A2800D2303820F02002412ABA
:101CF00001D3A2F13700884201D34FF0FF30704783
:101D00002DE9F34F4FF0000A0C4656468DB00120E6
:101D10000C9001F10C000B9062690B980121904727
:101D2000051E2DD0252D2CD0216A8847C0B16269AF
:101D30000B9801219047216A88470028F7D16269F2
:101D4000411E0B98904700E0761CA1690D988847CA
:101D5000216A88470028F7D1E1690D988847DBE7B9
:101D6000A1690D988847A842074601D1761CD3E7A0
:101D7000E1690D9888477F1C02D1BAF1000F6FD03E
:101D80006BE162690B9800273D46394690472A2847
:101D900004D162690B98012190470125DFF8D082B8
:101DA00062690B9801219047A0F130010A290AD2FB
:101DB0004745E5DC07EB870100EB4107303FDFD407
:101DC00045F01005ECE7E90601D46FF000476C28F8
:101DD0000AD04C2814D0682815D06A280DD0742851
:101DE0001CD07A281AD01DE062690B980121904717
:101DF0006C2802D045F0040514E045F002050DE022
:101E000045F020050AE062690B9801219047682897
:101E100002D045F0080505E045F4006562690B98BD
:101E200001219047C4E9015765283DD019DC5828A5
:101E30007AD00CDC452837D004DC252826D0412870
:101E40009ED131E046282FD0472899D12CE05B283D
:101E500077D0612828D063287CD0642823D15AE029
:101E6000F6E06F2848D008DC66281DD067281BD014
:101E7000692821D06E2816D127E0702845D0732814
:101E800068D0752847D078280DD14DE0A1690D980C
:101E90008847252805463FF469AFE1690D988847D2
:101EA0006D1C3FF46AAFD8E00D9923466A466FF087
:101EB00001001EF0DFFFC5E045F0400023464FF073
:101EC00000026060A80736D43EE0E8077FF447AF21
:101ED0002068011D21600068290501D506701BE7F7
:101EE000290701D5068017E7A90703D5F117C0E92F
:101EF000006111E706600FE745F0400023464FF010
:101F000008026060A80716D41EE040F60E0125EA1C
:101F10000100606016E045F0400023464FF00A02E1
:101F20006060A80707D40FE045F040006060A80794
:101F300008D5234610220D996FF00100FEF714FF1B
:101F400080E007E0102223460D996FF00100FEF7B4
:101F5000B6FF77E04FF0000963284F46C8464B466E
:101F6000CB4602D05B2806D038E0E80601D4012039
:101F7000A060012732E06269D4F80CB00B9801210F
:101F800090475E2807D14FF0010949466269D4F8AD
:101F90000CB00B989047216939B900210A4603AB70
:101FA00043F82120491C0829FADBD8B3216949B339
:101FB00008F1010862690B98012190475D28F4D16E
:101FC000B9F1000F09D0002003A951F82020D24315
:101FD00041F82020401C0828F7DB03AB20690028CB
:101FE00020794FEA40701ED05B462246CDF8008033
:101FF000CDE901970D9900286FF0010020DAFFF775
:10200000A9F91FE0C11703AA00EBD1614B1121F020
:102010001F0102EB8302411A136801208840034329
:102020001360C7E719E00D99224600286FF0010000
:10203000009702DAFFF790F804E0FEF7E6FF01E010
:10204000FFF714F900280ADA401C06D10C9820B1D9
:102050004FF0FF300FB0BDE8F08F5046FAE7E907C8
:1020600001D10AF1010A064400200C9054E6000058
:10207000CCCCCC0C2DE9FF4F06468BB00878FF285E
:1020800006D0491C2D2805D000244FF0000908E097
:1020900000200CE00124F8E709EB8903491C00EB60
:1020A00043090878FF28F7D114B1C9F1000081462F
:1020B000107800252C46AA4629462D2801D02B2829
:1020C00004D1521C2D2813D0002082468B46107854
:1020D000FF280FD04FF0000C0A21521CA5FB0178FD
:1020E00004FB018105FB0C11C5194BEB0104EEE764
:1020F0000120EAE7002108464FF00000BAF1000F86
:1021000002D000EB80004008C0F38157012F01DDB1
:102110004FF0FF370E9955EA040009EB01080BD088
:102120004FF0020918F5FA7F16DA4FEACA70002F4D
:10213000706008DD012007E04FEACA70C6E900B010
:102140000FB0BDE8F08F0020306000F093FAC0F8C7
:1021500000901821084616E0B8F5FA7F18DD002F28
:1021600002DAF748784401E0F6487844D0E90010F4
:10217000C6E9001040EACA70706000F07BFAC0F84F
:102180000090142108460FB0BDE8F04F1EF00BBEC2
:10219000002108464FF00000B8F10001099002DA72
:1021A000C7F1000200E03A4601DAC8F1000106A8D2
:1021B00000F0B8FA06AB93E8070003AB83E807002A
:1021C00044F23E005BEA04010090584604D144F218
:1021D0001E012C465D460091210C0904014306D1E5
:1021E0000099240444EA15442D041039009104F0A8
:1021F0007F41014306D10099240244EA15642D026F
:102200000839009104F07041014306D1009924017E
:1022100044EA15742D01091F009104F04041014367
:1022200006D10099A40044EA9574AD00891E00917E
:1022300004F00041084304D100986D196441401E28
:1022400000904FF001033A466846B8F1000FCDE91F
:10225000014503A902DD1EF0F0FA01E01EF0C3FA09
:10226000BAF1000F04460D4601D084F0004400216D
:1022700008464FF00000099940F2FF77484010F0FF
:102280000C0F07D124F00040284303D0C4F30A50B8
:10229000B84212D100F0EEF9C0F80090C4F30A5031
:1022A000B8420AD1A8487844D0E90010C6E9001025
:1022B00004F000410843706042E7C6E900543FE77C
:1022C0002DE9FF4F1F464FF0000A4FF0FF384546FB
:1022D00091B0D7E90146CDF83CA000F0C7F9C0683D
:1022E0000168405C1090B96912986D1C8847396A82
:1022F000814688470028F6D1B9F1FF3F0AD0002E69
:1023000024F4D06411DDB9F12B0F08D0B9F12D0FF1
:102310000BD102E0404615B013E744F48064B9697C
:1023200012986D1C8847761E8146600504A901D568
:102330002D2000E02B20002E01F1010B0DF13008C3
:102340008DF810003FDDB9F1690F08D0B9F1490FE0
:1023500005D0B9F16E0F02D0B9F14E0F1CD13B463A
:1023600001A8009580E85002DDE912126FF002002A
:102370001EF084FDC11CCED10EE0B96912986D1C0F
:10238000884781461398761E44F4007405600F98C0
:10239000401C002E0F9016DDB9F1300FEDD0B9F1D1
:1023A000780F02D0B9F1580F0DD10F9801280AD13A
:1023B0003B46CDE90054DDE91212001F02961EF0E3
:1023C0005BFDC11CA7D1109989453ED144F0800422
:1023D00006E01399681CAAF1010A44F4007408602D
:1023E000B9696D1C1298761E884730288146F0D056
:1023F0002BE01099894505D1200603D4761E44F0C0
:10240000800418E048461EF03FFC08B3761E0DF12C
:1024100023029345A9F1300044F4007406D20BF86E
:10242000010B200607D5AAF1010003E0200602D423
:102430000AF101008246A00502D51399681C0860C4
:10244000B96912986D1C88478146002ED1DC53E093
:10245000002E51DDB9F1650F02D0B9F1450F4BD116
:10246000A00549D5B9696D1C1298761E24F44074F4
:102470008847002E81460CDD2B2804D0B9F12D0FA2
:1024800007D144F48074B96912986D1C8847761E90
:102490008146E00501D52D2100E02B2108F8011B24
:1024A000CDF8008021E0761E0DF13901884544F415
:1024B00000740CD2A9F1300010F0FF0088F8000081
:1024C00002D10099884509D908F1010806E0E00524
:1024D00001D51E4801E042F20F708246B969129898
:1024E0006D1C8847814613980560002E04DD484620
:1024F0001EF0CAFB0028D6D1F96912988847FF2040
:1025000053468BF8000088F8000000200A900B90DA
:1025100004AA0CA90AA8FFF7ADFDA00502D46FF02C
:102520000100F8E614F0240F12D0E0071CD138683F
:10253000DDE90A12031D3B600068C0E9001213E0E8
:10254000B0F20100A2F2010066F10100F1D8FFFF34
:102550000AA968461EF03CFBE00705D13868009ADE
:10256000011D3960006802602846D4E610B508E015
:1025700030F8024B9C4204D10AB1002010BD01206A
:1025800010BD491EF4D2104610BDF8B516460C46D3
:10259000054600F063F8036893F80101012804D0B0
:1025A000185D78B101202C80F8BDD3F803013246C4
:1025B000214603F20313C71868460023B847009961
:1025C0002980F8BD4FF0FF30F8BD2DE9F0411646E7
:1025D0000C46054600F042F8036893F80101012813
:1025E00007D0FF2C12D8185D80B101202C70BDE8F7
:1025F000F081D3F807013246214603F20713C718CA
:102600002846BC46BDE8F041002360474FF0FF304C
:10261000EDE7754600F002F9AE46050069465346FF
:1026200020F00700854618B020B5FDF73DFFBDE856
:1026300020404FF000064FF000074FF000084FF029
:10264000000BAC46ACE8C009ACE8C009ACE8C00976
:10265000ACE8C00921F007018D46704710B500F0C5
:1026600005F8001D10BD00BFE9E6010000487047F5
:10267000480300240048704728030024B2F12003D7
:102680000AD5C2F1200301FA02F120FA03F341EA6C
:10269000030100FA02F0704700FA03F14FF0000066
:1026A000704700002DE9F0411F46044603260168EB
:1026B000072A01F4006004DB08B116A505E016A5A1
:1026C00003E008B115A500E015A521F01000206079
:1026D000A069C01EA0610FB1401EA0612046FEF798
:1026E0008FF84FB1D4E9012138469047206A401C49
:1026F0002062C01C206206E0206AFAE7D4E90121CA
:1027000015F8010B9047761EF8D22046FEF78EF89A
:10271000BDE8F0814E414E006E616E00494E4600AC
:10272000696E66002DE9F047814616468AB0354845
:1027300078440DC88DE80D0032487844801C03AC05
:102740000DC884E80D0041F69B300844372190FB0A
:10275000F1F290FBF1F5A5F1800501FB12041B3CA1
:1027600002D56442012000E00020DFF898A08046F6
:102770000027FA44AAF1BE0A0EE0E0070AD032466A
:10278000684607EB470101230AEB81011EF040F880
:102790008DE8070064107F1C002CEED1194F7F4498
:1027A000AE3F19E0E80715D007EB04100DF1180A49
:1027B00090E80E008AE80E00C068F04201D1981936
:1027C00008903246012306A903A81EF021F803ABA6
:1027D00083E807006D10641C002DE3D14FF0010366
:1027E00032466946B8F1000F03A802D01DF0E6FF9B
:1027F00001E01EF00DF8C9E90001C9F808200AB08F
:10280000BDE8F08760E8010010B50446AFF3008032
:102810002046BDE81040FDF730BE0000004870477C
:102820002803002410B5FFF725FF006810BD10B580
:102830000446FFF71FFF046010BD00002DE9FF4FA5
:102840001F464FF03C0987B04FF00042DDE91410FD
:1028500001F10108DDF858A002EA40500390002081
:1028600005908346054604460490B969461E0898BB
:102870008847AAF1010A0290BAF1000F3BDD0298E5
:102880002E2815D01021FFF72DFA00282EDB4FF04F
:10289000010B0599014317D0B9F1000F0BDB4A4634
:1028A000C117FFF7EBFE05430C43A9F1040905E04E
:1028B000012004900BE008B145F0010501200590CE
:1028C000049820B9361D02E0049800B1361FB9699A
:1028D000089808F101088847BBF1000FAAF1010A26
:1028E0000290C9D00999C1F80080C5E70298702804
:1028F00008D0502806D0F96908988847BBF1000F26
:1029000014D04FE0002002900120BBF1000F049092
:1029100009D0B969089808F101088847AAF10109A6
:10292000B9F1000F07DCF969089888476FF00100DA
:102930000BB0BDE8F08F2B2804D02D280CD14FF020
:10294000FF300490B969089808F101088847A9F197
:102950000109B9F1000FE6DD411CE4D00A21FFF7BF
:10296000C1F90028DFDB029908F1010801EB8101C0
:1029700000EB41000290B969089888470A21FFF7E7
:10298000B1F9099AA9F10109B9F1000FC2F8008063
:1029900001DD0028E7DAF969089888470499029868
:1029A00000FB016655EA040004D004F04041090030
:1029B00002D006E0039898E0A40044EA9574AD00C4
:1029C000B61E04F00041080002D16D196441761E64
:1029D000159810F0240F03D04FF00B095C4803E06A
:1029E0004FF028096FF07D008246564507DAAAEBC2
:1029F00006018944B9F1410F01DD4FF04109012081
:102A00000021A9F10102FFF739FE024628400B46DA
:102A10002140084301D0012100E00021501E029115
:102A200043F1FF3128402140084301D0012000E05C
:102A300000200299834651EA0B014FD0002108463D
:102A40004FF00000039900F4400039B100EB800022
:102A50004FF4400100EBD07001EA600080150128BE
:102A600002DD4FF0FF3000E013D0401C36D002985A
:102A700060B3BBF1000F0CD14A4601200021FFF7E3
:102A8000FDFD28402140084301D0012000E0002046
:102A9000E0B101204A460021FFF7F0FD034640194E
:102AA0000A4661412D1A8C4111D3B9F1400F09DD5D
:102AB000159810F0240F02D0AAF1340603E0AAF111
:102AC000170600E0761C00254FF0004406E05B1E70
:102AD00042F1FF3220EA030521EA0204CAF10100B3
:102AE000B04206DA1B490398084301900020009089
:102AF0000EE0039AC4F3D321E80A0A43164940EAD8
:102B000044500A433146CDE9000268461EF069F898
:102B1000159810F0240F0BD01598C00715D1386800
:102B2000DDE90012031D3B600068C0E900120CE003
:102B300002A869461EF04CF81598C00705D1386800
:102B4000029A011D3960006802604046F0E600000C
:102B500002FCFFFF0000F07F0000F03F2DE9FF4F77
:102B600092461D4685B04FF00041DDE9124BDDE98C
:102B700014727F1E01EA4B50414940F0FF4940EA80
:102B80000108002122F020004928049102D04E289B
:102B900028D04CE03BA0012607C88DE80700A969B2
:102BA0000698641C88477F1E014606D41DF806005F
:102BB00018B121F0200181420BD0E96906988847BD
:102BC000032E34D0082E32D06FF0010009B0BDE8DA
:102BD000F08F761C032E01D0082EE0D1601CCAF8BD
:102BE0000000DCE7A9690698641C88477F1E2AD488
:102BF00020F02000412826D1A9690698641C884746
:102C00007F1E20D420F020004E281CD1A9690698F0
:102C1000641C88477F1E48F4002849F48009CAF8DC
:102C2000004001D4282806D0E969069888475FEA61
:102C3000CB7012D022E0A9690698641C88477F1ED9
:102C400001D4002803DAE96906988847BCE72928F7
:102C5000F1D1641CCAF80040E9E71BF0240F07D04B
:102C600028680499031D2B600068C0E9001805E07E
:102C70002868021D2A600068C0F800902046A5E779
:102C80000000F07F494E46494E495459000000006B
:102C900030B44FF0013C50F8042BCCFA52F451F808
:102CA000043BD51A20D1FCB950F8042BCCFA52F4CD
:102CB00051F8043BD51A17D1B4B950F8042BCCFA0B
:102CC00052F451F8043BD51A0ED16CB950F8042BCC
:102CD000CCFA52F451F8043BD51A05D1002CDAD0C5
:102CE00030BC4FF00000704729BAB1FA81F111F001
:102CF0001801D1F120008440F2D1CA40CB4012F03B
:102D0000FF0213F0FF0330BCD01A704701491820AE
:102D1000ABBEFEE726000200704700000000000086
:102D2000FFE7FEE70000000084B08DF80F0002917D
:102D3000ADF806209DF80F000146009123281DD80C
:102D40000099DFE801F012131415161B1B1B1B1B47
:102D50001B1B1B1B1B1B1B1B1B1B1B1B1B1B1B1BC3
:102D60001B1B1B1B1B1B1718191A08E007E006E0AA
:102D700005E004E003E002E001E000E0FFE70020FE
:102D800004B0704700000000002070470000000001
:102D900080B582B045F6B800C2F20040009043F61C
:102DA000E021C2F20041002201920FF069FE00987A
:102DB00043F2E021C2F200410FF042FE019802B05E
:102DC00080BD00000000000080B584B00390029137
:102DD00002980068019001981F2803D3FFE71E2086
:102DE0000190FFE70399019A45F28160C2F2004029
:102DF000FDF724FC039945F6B800C2F200400090AC
:102E00000FF01EFE00980FF0BFFD002004B080BD43
:102E100083B0029001918DF8032000208DF802000C
:102E20009DF9020003B0704780B586B00490ADF8FC
:102E30000E1000208DF80D0045F6B800C2F20040DB
:102E4000D0F8BC0202900298D0F8140220B1FFE73B
:102E500001208DF8170013E00499BDF80E2045F607
:102E6000B800C2F2004001900FF00AFE01980FF086
:102E700013FF8DF80D009DF80D008DF81700FFE78A
:102E80009DF8170006B080BD80B584B00290ADF803
:102E90000610029846F6F821C2F20041884234D169
:102EA000FFE745F2B540C2F20040002180F8401033
:102EB00045F2F641C2F2004145F2F842C2F2004248
:102EC00045F2FC43C2F200430DF062F9B8B1FFE7EE
:102ED00045F2F640C2F20040008845F6B001C2F269
:102EE0000041088045F2F840C2F200400088488066
:102EF00045F2FC40C2F2004000684860FFE715F070
:102F0000DBF801208DF80F0011E0029846F2807185
:102F1000C2F20041884206D1FFE714F0F1FD012022
:102F20008DF80F0003E000208DF80F00FFE79DF8FB
:102F30000F0004B080BD000080B545F69430C2F2A9
:102F4000004002F059F980BD80B545F6DC60C2F260
:102F5000004002F051F980BD80B545F66460C2F2D0
:102F6000004002F049F980BD80B545F60C40C2F240
:102F7000004002F041F980BD80B545F6EC50C2F248
:102F8000004002F039F980BD80B545F6FC40C2F240
:102F9000004002F031F980BD80B545F67450C2F2B0
:102FA000004002F029F980BD80B545F68440C2F2A8
:102FB000004002F021F980BD83B0029002980168C0
:102FC00001201022C4F202029142009000F0A3807E
:102FD000FFE70298016801202822C4F20202914210
:102FE000009000F09880FFE70298016801204022DD
:102FF000C4F202029142009000F08D80FFE7029837
:10300000016801205822C4F202029142009000F0AF
:103010008280FFE70298016801207022C4F2020258
:103020009142009077D0FFE7029801680120882242
:10303000C4F20202914200906DD0FFE7029801684D
:103040000120A022C4F202029142009063D0FFE767
:10305000029801680120B822C4F202029142009055
:1030600059D0FFE702980168012040F21042C4F2F3
:103070000202914200904ED0FFE7029801680120C1
:1030800040F22842C4F202029142009043D0FFE78E
:1030900002980168012040F24042C4F202029142CB
:1030A000009038D0FFE702980168012040F25842B2
:1030B000C4F20202914200902DD0FFE7029801680D
:1030C000012040F27042C4F202029142009022D0EC
:1030D000FFE702980168012040F28842C4F2020230
:1030E0009142009017D0FFE702980168012040F25A
:1030F000A042C4F20202914200900CD0FFE7029875
:1031000000684FF64831CBF6FD710844B0FA80F004
:1031100040090090FFE70098C00740B3FFE702981E
:10312000007810384AF6AB21CAF6AA21A0FB01109C
:1031300000090190019800F0070141F23C00C0F63F
:103140000200405C0299C8650198042807D3FFE794
:1031500002990868042262F30900886506E0029972
:10316000086840F2FF3290438865FFE705E0029966
:10317000086820F0FF008865FFE70298806D03B0C3
:10318000704700000000000084B0039003980068BE
:10319000019003980168012045F20842C5F6020239
:1031A000914200904ED0FFE703980168012045F25C
:1031B0001C42C5F602029142009043D0FFE70398FB
:1031C0000168012045F23042C5F6020291420090AA
:1031D00038D0FFE703980168012045F24442C5F664
:1031E0000202914200902DD0FFE703980168012070
:1031F00045F25842C5F602029142009022D0FFE704
:1032000003980168012045F26C42C5F60202914222
:10321000009017D0FFE703980168012045F2804233
:10322000C5F60202914200900CD0FFE703980068B7
:103230004AF66C31CAF2FD710844B0FA80F04009D8
:103240000090FFE70098C00710B3FFE703980078ED
:1032500008384CF6CD41CCF6CC41A0FB011000095A
:103260000290029945F60000C5F6020000EB8100CD
:1032700003990866039945F68000C5F60200486682
:10328000029800F01F01012088400399886635E00C
:103290000398007810384AF6AB21CAF6AA21A0FBA1
:1032A000011000090290019840F2B841C4F20201F5
:1032B00088420CD8FFE7019840F21041C4F20201A5
:1032C000884204D3FFE7029808300290FFE7029992
:1032D00040F60000C4F2020000EB8100039908668A
:1032E000039940F68000C4F202004866029800F09C
:1032F0001F010120884003998866FFE704B07047EA
:1033000083B002900298007901900198002800F0A3
:103310008A80FFE70198082800F28580FFE702987D
:103320000168012045F20842C5F602029142009070
:103330004ED0FFE702980168012045F21C42C5F615
:1033400002029142009043D0FFE7029801680120F9
:1033500045F23042C5F602029142009038D0FFE7B4
:1033600002980168012045F24442C5F602029142EA
:1033700000902DD0FFE702980168012045F25842E5
:10338000C5F602029142009022D0FFE70298016840
:10339000012045F26C42C5F602029142009017D01E
:1033A000FFE702980168012045F28042C5F602025B
:1033B000914200900CD0FFE7029800684AF66C3109
:1033C000CAF2FD710844B0FA80F040090090FFE7AE
:1033D0000098C00780B1FFE7019945F6FC00C5F6EB
:1033E000020000EB81000299C866029945F6401080
:1033F000C5F6020008670FE0019940F6FC00C4F230
:10340000020000EB81000299C866029940F6401064
:10341000C4F202000867FFE70198411E01208840BE
:1034200002994867FFE703B0704700000000000002
:1034300085B0049000208DF80F000498806918BBB7
:10344000FFE70498806A029003281BD80299DFE8FE
:1034500001F0020D0218049890F82F00C00720B167
:10346000FFE701208DF80F00FFE70CE00498C06A29
:10347000B0F1C07F04D1FFE701208DF80F00FFE716
:1034800001E000E0FFE747E004988069B0F5005FE5
:1034900026D1FFE70498806A019003281ED801997D
:1034A000DFE801F00206021101208DF80F0016E09E
:1034B000049890F82F00C00720B1FFE701208DF895
:1034C0000F00FFE70BE00498C06AB0F1C07F04D1A1
:1034D000FFE701208DF80F00FFE700E0FFE71AE0AB
:1034E0000498806A0090032804D3FFE7009803281B
:1034F00004D00EE001208DF80F000BE0049890F846
:103500002F00C00720B1FFE701208DF80F00FFE773
:1035100000E0FFE7FFE7FFE79DF80F0005B0704709
:1035200089B008900791069205930898806D0490E1
:103530000898806D03900898016801201022C4F259
:1035400002029142029000F00381FFE708980168AF
:1035500001202822C4F202029142029000F0F88079
:10356000FFE70898016801204022C4F2020291425C
:10357000029000F0ED80FFE70898016801205822D2
:10358000C4F202029142029000F0E280FFE7089844
:10359000016801207022C4F202029142029000F000
:1035A000D780FFE70898016801208822C4F2020250
:1035B0009142029000F0CC80FFE70898016801205A
:1035C000A022C4F202029142029000F0C180FFE703
:1035D000089801680120B822C4F2020291420290C8
:1035E00000F0B680FFE708980168012040F2104221
:1035F000C4F202029142029000F0AA80FFE708980C
:103600000168012040F22842C4F202029142029075
:1036100000F09E80FFE708980168012040F24042D8
:10362000C4F202029142029000F09280FFE70898F3
:103630000168012040F25842C4F202029142029015
:1036400000F08680FFE708980168012040F2704290
:10365000C4F20202914202907AD0FFE70898016812
:10366000012040F28842C4F20202914202906FD0DF
:10367000FFE708980168012040F2A042C4F202026C
:103680009142029064D0FFE708980168012040F25F
:10369000B842C4F202029142029059D0FFE7089862
:1036A0000168012045F20842C5F6020291420290EB
:1036B0004ED0FFE708980168012045F21C42C5F68C
:1036C00002029142029043D0FFE70898016801206E
:1036D00045F23042C5F602029142029038D0FFE72F
:1036E00008980168012045F24442C5F60202914261
:1036F00002902DD0FFE708980168012045F258425A
:10370000C5F602029142029022D0FFE708980168B4
:10371000012045F26C42C5F602029142029017D098
:10372000FFE708980168012045F28042C5F60202D1
:10373000914202900CD0FFE7089800684AF66C317D
:10374000CAF2FD710844B0FA80F040090290FFE728
:103750000298C00770B1FFE70898416E806E48601C
:103760000898C06E28B1FFE70898016F406F486065
:10377000FFE7FFE70898016801201022C4F2020267
:103780009142019000F0A380FFE7089801680120B2
:103790002822C4F202029142019000F09880FFE7D3
:1037A0000898016801204022C4F20202914201906F
:1037B00000F08D80FFE70898016801205822C4F2CC
:1037C00002029142019000F08280FFE708980168B0
:1037D00001207022C4F202029142019077D0FFE7EB
:1037E0000898016801208822C4F2020291420190E7
:1037F0006DD0FFE7089801680120A022C4F2020200
:103800009142019063D0FFE7089801680120B82237
:10381000C4F202029142019059D0FFE70898016872
:10382000012040F21042C4F20202914201904ED0B7
:10383000FFE708980168012040F22842C4F2020222
:103840009142019043D0FFE708980168012040F2BF
:103850004042C4F202029142019038D0FFE708983A
:103860000168012040F25842C4F2020291420190E4
:103870002DD0FFE708980168012040F27042C4F2A1
:1038800002029142019022D0FFE7089801680120CE
:1038900040F28842C4F202029142019017D0FFE741
:1038A00008980168012040F2A042C4F2020291424D
:1038B00001900CD0FFE7089800684FF64831CBF62E
:1038C000FD710844B0FA80F040090190FFE70198CB
:1038D000C00750B3FFE70898C06D00F01F013F20FC
:1038E00088400499886008980168086820F480205E
:1038F0000860059808990968486008988068402819
:1039000009D1FFE70698089909688860079808991F
:103910000968C86008E007980899096888600698EF
:1039200008990968C860FFE782E0089801680120EB
:1039300045F20842C5F60202914200904ED0FFE7E0
:1039400008980168012045F21C42C5F60202914226
:10395000009043D0FFE708980168012045F230420B
:10396000C5F602029142009038D0FFE7089801683E
:10397000012045F24442C5F60202914200902DD04A
:10398000FFE708980168012045F25842C5F6020297
:103990009142009022D0FFE708980168012045F28B
:1039A0006C42C5F602029142009017D0FFE70898DA
:1039B0000168012045F28042C5F602029142009062
:1039C0000CD0FFE7089800684AF66C31CAF2FD7126
:1039D0000844B0FA80F040090090FFE70098C00763
:1039E00020B3FFE70898C06D00F01F010120884058
:1039F00003994860059808990968486008988068A4
:103A0000402809D1FFE70698089909688860079857
:103A100008990968C86008E00798089909688860EB
:103A2000069808990968C860FFE700E0FFE7FFE72C
:103A300009B070470000000070470000000000005F
:103A400080B582B08DF807008DF806108DF805203E
:103A50009DF8071045F21860C2F200400170F32192
:103A60004170AB2181709DF8061001F00101C17019
:103A70009DF8051001F0010101716B2141710621D2
:103A80000CF0D6FF02B080BD80B584B08DF80F0079
:103A90008DF80E100292029808B9FFE76BE09DF8CE
:103AA0000F1045F25860C2F20040019001704821A9
:103AB0004170D12181709DF80E1001F00101C1709B
:103AC00002990978017102994978417102998978BE
:103AD00081710299C978C1710299097901720299BB
:103AE000497941720299897981720299C979C172C1
:103AF0000299497A01730299097A41730299C97A44
:103B000081730299897AC1730299497B0174029980
:103B1000097B41740299897B81740299C97BC174C4
:103B20000299097C01750299497C41750299897C49
:103B300081750299C97CC1750299497D0176029906
:103B4000097D41760299C97D81760299897DC17688
:103B50000299497E01770299097E41770299C97ECF
:103B600081770299897EC1776B2180F8201021210D
:103B70000CF05EFFFFE704B080BD00000000000015
:103B800010B582B08C46864606980599049C8DF83F
:103B900007E08DF806C0ADF804208DF803308DF8ED
:103BA00002108DF801009DF8071045F22860C2F25E
:103BB00000400170FD2141709DF8061081709DF854
:103BC0000510C1709DF8041001719DF8031041713A
:103BD0009DF813108171BDF81210C1710499090A82
:103BE0000172049941729DF8021081729DF80110D2
:103BF00001F00101C1726B2101730D210CF018FF5E
:103C000002B010BD0000000080B582B08DF8070042
:103C10009DF8071045F24860C2F2004001700E2185
:103C20004170522181706B21C17004210CF000FFA2
:103C300002B080BD0000000080B582B084460498C8
:103C40008DF807C08DF80610ADF804208DF803300C
:103C50008DF802009DF8071045F23860C2F200406E
:103C60000170F62141709DF8061081709DF80510D5
:103C7000C1709DF8041001719DF8031041719DF809
:103C8000021001F0010181716B21C17108210CF05A
:103C9000CFFE02B080BD000081B0EFF3108072B69D
:103CA0000090FFE7FEE7000044F60C01C5F60201B4
:103CB000086840F002000860FFE744F60400C5F61B
:103CC000020000688004002801D4FFE7F5E7704790
:103CD00080B545F65470C2F2004003F0FDFE80BD91
:103CE00080B545F6F470C2F2004003F0F5FE80BDE9
:103CF00080B545F6F470C2F2004003F0EDFE80BDE1
:103D000080B546F29400C2F2004003F0E5FE80BDAB
:103D100084B002900298406B009002980068D0F83E
:103D200084004FF6FC718843009940EA81000299B3
:103D30000968C1F8840002980068D0F8840020F473
:103D40007F00029A1168926B40EA0240C1F8840039
:103D50000298816B00980844009002980068D0F89F
:103D600088006FF38F00009940EA8100029909688A
:103D7000C1F8880002980068D0F8880020F4FE009E
:103D8000029A1168D26B40EA0240C1F8880002989A
:103D9000C16B009800EB4100009002980068D0F8D9
:103DA000A0006FF38F00009940EA81000299096832
:103DB000C1F8A00002980068D0F8A00020F4FE002E
:103DC000029A1168126C40EA0240C1F8A000029900
:103DD000086C496C009A00FB012000900298006872
:103DE000D0F8B0006FF38F00009940EA810002998B
:103DF0000968C1F8B00002980068D0F8B00020F45B
:103E0000FE00029A1168926C40EA0240C1F8B000CC
:103E10000299886CC96C009A00FB012000900298FE
:103E20000068D0F8AC006FF38F00009940EA810081
:103E300002990968C1F8AC000299086D496D009AB1
:103E400000FB0120009002980068D0F8F0006FF3AA
:103E50008F00009940EA810002990968C1F8F000DA
:103E600002980068D0F8F00020F47C10029A1168E3
:103E7000926D40EA0240C1F8F0000298816D00980E
:103E800000EB4100009002980068D0F8C0006FF38A
:103E90008F00009940EA810002990968C1F8C000CA
:103EA00002980068D0F8C00020F47C10029A1168D3
:103EB000D26D40EA0240C1F8C00002980068D0F814
:103EC000C00020F07C50029A1168126E40EA026035
:103ED000C1F8C00002994A6B4AF60040C4F20000E3
:103EE00000EB8200C86602998A6BC86E00EB820004
:103EF00008670299CA6B086F00EBC2004867029915
:103F00000A6C4B6C486F5A4300EB82008867029939
:103F10008A6CCB6C886F5A4300EB8200C8670299A9
:103F20000A6D4B6DC86F5A4300EB8200C1F88000E8
:103F300002998A6DD1F8800000EBC200C1F88400BC
:103F40000299CA6D8B6ED1F884005A4300EB82004F
:103F5000C1F8880002990A6E8B6ED1F888005A4326
:103F600000EB8200C1F890000298D0F890004DF26A
:103F7000FD31C4F2000188420FD3FFE70299D1F866
:103F80009C0040F02000C1F89C000299032081F8B9
:103F9000980001208DF80F0017E00298C06E019084
:103FA000FFE701980299D1F89010884208D2FFE704
:103FB000019900200860FFE7019804300190F0E7C4
:103FC000FFE700208DF80F00FFE79DF80F0004B019
:103FD000704700000000000088B00790069105922D
:103FE00004930698406848B9FFE70698016882681C
:103FF0000069104340EA8140039009E00698016897
:10400000826800691043084340F080400390FFE756
:104010000698D0F820C0C16842698369C06940EA47
:104020000C601843104340EA014002900798826EEA
:10403000D0F884000499514300EB8100019003986B
:104040000199086001980430019002980199086074
:1040500001980430019000200090FFE70098069935
:10406000CA6841F22C01C0F60201895C88420DD277
:10407000FFE70598009940580199086001980430BD
:104080000190FFE7009804300090E7E708B0704720
:1040900080B584B0039002910192039830B1FFE79C
:1040A000029818B1FFE7019808B9FFE72CE00398E0
:1040B00046F29401C2F20041884201D0FFE723E0BA
:1040C00002984068A0B9FFE70298006840F2072113
:1040D00088420DD1FFE70198009004F08DFD009912
:1040E000024645F28C70C2F2004016F089FE0BE0E9
:1040F00002984068B0F1804F06D1FFE7029800684F
:10410000019911F0C5FFFFE704B080BD0000000079
:1041100080B584B003900291039818B1FFE702982C
:1041200008B9FFE71FE00398406838B9FFE7039834
:10413000006840F2FF11884201D0FFE713E045F22A
:104140008C70C2F2004018F03BFBADF80600042072
:104150008DF805009DF80700029908719DF806008A
:1041600002994871FFE704B080BD00000000000024
:1041700080B584B04EF60000C1F6F170006803907F
:104180004EF60400C1F6F170006802904EF6080089
:10419000C1F6F170006801900199039808440390FA
:1041A000039888B1FFE7039840F2EC01C2F20041A6
:1041B0000091023108220BF067F800990298123141
:1041C00004220BF061F8FFE704B080BD000000009E
:1041D00080B58AB0089004F00FFD0490089828B9C3
:1041E000FFE701208DF8270000F0AABC089890F89E
:1041F000350002280ED0FFE7089980204865FFE7C8
:104200000899002081F83400FFE701208DF827008D
:1042100000F096BC0898016801201022C4F2020246
:104220009142039000F0A380FFE708980168012005
:104230002822C4F202029142039000F09880FFE726
:104240000898016801204022C4F2020291420390C2
:1042500000F08D80FFE70898016801205822C4F221
:1042600002029142039000F08280FFE70898016803
:1042700001207022C4F202029142039077D0FFE73E
:104280000898016801208822C4F20202914203903A
:104290006DD0FFE7089801680120A022C4F2020255
:1042A0009142039063D0FFE7089801680120B8228B
:1042B000C4F202029142039059D0FFE708980168C6
:1042C000012040F21042C4F20202914203904ED00B
:1042D000FFE708980168012040F22842C4F2020278
:1042E0009142039043D0FFE708980168012040F213
:1042F0004042C4F202029142039038D0FFE708988E
:104300000168012040F25842C4F202029142039037
:104310002DD0FFE708980168012040F27042C4F2F6
:1043200002029142039022D0FFE708980168012021
:1043300040F28842C4F202029142039017D0FFE794
:1043400008980168012040F2A042C4F202029142A2
:1043500003900CD0FFE7089800684FF64831CBF681
:10436000FD710844B0FA80F040090390FFE703981C
:10437000C00780B1FFE708980168086820F01E00B8
:10438000086008980168486920F080004861089832
:104390000068059009E008980168086820F00E00A0
:1043A0000860089800680590FFE7089801680120F8
:1043B0001022C4F202029142029000F00381FFE752
:1043C0000898016801202822C4F20202914202905A
:1043D00000F0F880FFE70898016801204022C4F24D
:1043E00002029142029000F0ED80FFE70898016818
:1043F00001205822C4F202029142029000F0E280B1
:10440000FFE70898016801207022C4F2020291427D
:10441000029000F0D780FFE7089801680120882209
:10442000C4F202029142029000F0CC80FFE70898AB
:1044300001680120A022C4F202029142029000F021
:10444000C180FFE7089801680120B822C4F2020287
:104450009142029000F0B680FFE7089801680120C1
:1044600040F21042C4F202029142029000F0AA808F
:10447000FFE708980168012040F22842C4F20202D6
:104480009142029000F09E80FFE7089801680120A9
:1044900040F24042C4F202029142029000F0928047
:1044A000FFE708980168012040F25842C4F2020276
:1044B0009142029000F08680FFE708980168012091
:1044C00040F27042C4F20202914202907AD0FFE7B9
:1044D00008980168012040F28842C4F20202914229
:1044E00002906FD0FFE708980168012040F2A042D7
:1044F000C4F202029142029064D0FFE7089801687A
:10450000012040F2B842C4F202029142029059D016
:10451000FFE708980168012045F20842C5F602024B
:10452000914202904ED0FFE708980168012045F2C1
:104530001C42C5F602029142029043D0FFE7089860
:104540000168012045F23042C5F602029142029014
:1045500038D0FFE708980168012045F24442C5F6CB
:104560000202914202902DD0FFE7089801680120D5
:1045700045F25842C5F602029142029022D0FFE76E
:1045800008980168012045F26C42C5F6020291428A
:10459000029017D0FFE708980168012045F2804299
:1045A000C5F60202914202900CD0FFE7089800681D
:1045B0004AF66C31CAF2FD710844B0FA80F0400945
:1045C0000290FFE70298C00738B1FFE70898016E34
:1045D000086820F480700860FFE7089800681021E0
:1045E000C4F20201884200F08180FFE70898006869
:1045F0002821C4F20201884278D0FFE708980068B9
:104600004021C4F20201884270D0FFE70898006898
:104610005821C4F20201884268D0FFE70898006878
:104620007021C4F20201884260D0FFE70898006858
:104630008821C4F20201884258D0FFE70898006838
:10464000A021C4F20201884250D0FFE70898006818
:10465000B821C4F20201884248D0FFE708980068F8
:1046600040F21041C4F2020188423FD0FFE70898AF
:10467000006840F22841C4F20201884236D0FFE7C8
:104680000898006840F24041C4F2020188422DD0EF
:10469000FFE70898006840F25841C4F202018842DE
:1046A00024D0FFE70898006840F27041C4F202018C
:1046B00088421BD0FFE70898006840F28841C4F2A6
:1046C0000201884212D0FFE70898006840F2A0413A
:1046D000C4F20201884209D0FFE70898006840F25E
:1046E000B841C4F20201884207D1FFE70898016887
:1046F000086820F00100086006E008980168086872
:1047000020F001000860FFE7FFE705980068C00798
:10471000C8B1FFE704F070FA0499401A062811D3D3
:10472000FFE70899202048650899032081F83500A3
:10473000FFE70899002081F83400FFE701208DF899
:104740002700FDE1E1E70898016801201022C4F28A
:1047500002029142019000F0A380FFE708980168EF
:1047600001202822C4F202029142019000F09880B8
:10477000FFE70898016801204022C4F2020291423A
:10478000019000F08D80FFE7089801680120582211
:10479000C4F202029142019000F08280FFE7089883
:1047A000016801207022C4F202029142019077D088
:1047B000FFE70898016801208822C4F202029142B2
:1047C00001906DD0FFE7089801680120A022C4F293
:1047D00002029142019063D0FFE70898016801202E
:1047E000B822C4F202029142019059D0FFE7089822
:1047F0000168012040F21042C4F20202914201908D
:104800004ED0FFE708980168012040F22842C4F228
:1048100002029142019043D0FFE70898016801200D
:1048200040F24042C4F202029142019038D0FFE7C8
:1048300008980168012040F25842C4F202029142F5
:1048400001902DD0FFE708980168012040F27042E6
:10485000C4F202029142019022D0FFE70898016859
:10486000012040F28842C4F202029142019017D026
:10487000FFE708980168012040F2A042C4F202025A
:10488000914201900CD0FFE7089800684FF648313C
:10489000CBF6FD710844B0FA80F040090190FFE7C3
:1048A0000198C00760B1FFE70898806D07900898ED
:1048B000C06D00F01F013F208840079988600BE021
:1048C0000898806D06900898C06D00F01F010120C7
:1048D000884006994860FFE7089801680120102287
:1048E000C4F202029142009000F00381FFE70898B1
:1048F000016801202822C4F202029142009000F0D7
:10490000F880FFE70898016801204022C4F2020203
:104910009142009000F0ED80FFE7089801680120C7
:104920005822C4F202029142009000F0E280FFE7B8
:104930000898016801207022C4F20202914200909E
:1049400000F0D780FFE70898016801208822C4F2B0
:1049500002029142009000F0CC80FFE708980168C5
:104960000120A022C4F202029142009000F0C18016
:10497000FFE7089801680120B822C4F202029142C0
:10498000009000F0B680FFE708980168012040F22F
:104990001042C4F202029142009000F0AA80FFE7A8
:1049A00008980168012040F22842C4F202029142B4
:1049B000009000F09E80FFE708980168012040F217
:1049C0004042C4F202029142009000F09280FFE760
:1049D00008980168012040F25842C4F20202914254
:1049E000009000F08680FFE708980168012040F2FF
:1049F0007042C4F20202914200907AD0FFE7089818
:104A00000168012040F28842C4F202029142009003
:104A10006FD0FFE708980168012040F2A042C4F27D
:104A200002029142009064D0FFE7089801680120DB
:104A300040F2B842C4F202029142009059D0FFE71E
:104A400008980168012045F20842C5F60202914229
:104A500000904ED0FFE708980168012045F21C4203
:104A6000C5F602029142009043D0FFE70898016822
:104A7000012045F23042C5F602029142009038D042
:104A8000FFE708980168012045F24442C5F602029A
:104A9000914200902DD0FFE708980168012045F26F
:104AA0005842C5F602029142009022D0FFE70898D2
:104AB0000168012045F26C42C5F602029142009065
:104AC00017D0FFE708980168012045F28042C5F63B
:104AD0000202914200900CD0FFE7089800684AF665
:104AE0006C31CAF2FD710844B0FA80F040090090C0
:104AF000FFE70098C007A0B1FFE70898416E806EFD
:104B000048600898C06E58B1FFE70898C16E086801
:104B100020F4807008600898016F406F4860FFE7DC
:104B2000FFE70899012081F83500FFE70899002088
:104B300081F83400FFE7FFE700208DF82700FFE74A
:104B40009DF827000AB080BD80B586B00490049817
:104B500020B9FFE701208DF8170046E3049890F88C
:104B60003500022807D0FFE704998020486501201E
:104B70008DF8170039E30498016801201022C4F26F
:104B800002029142029000F0A380FFE704980168BE
:104B900001202822C4F202029142029000F0988083
:104BA000FFE70498016801204022C4F2020291420A
:104BB000029000F08D80FFE70498016801205822E0
:104BC000C4F202029142029000F08280FFE7049852
:104BD000016801207022C4F202029142029077D053
:104BE000FFE70498016801208822C4F20202914282
:104BF00002906DD0FFE7049801680120A022C4F262
:104C000002029142029063D0FFE7049801680120FC
:104C1000B822C4F202029142029059D0FFE70498F0
:104C20000168012040F21042C4F202029142029057
:104C30004ED0FFE704980168012040F22842C4F2F8
:104C400002029142029043D0FFE7049801680120DC
:104C500040F24042C4F202029142029038D0FFE793
:104C600004980168012040F25842C4F202029142C5
:104C700002902DD0FFE704980168012040F27042B5
:104C8000C4F202029142029022D0FFE70498016828
:104C9000012040F28842C4F202029142029017D0F1
:104CA000FFE704980168012040F2A042C4F202022A
:104CB000914202900CD0FFE7049800684FF648310B
:104CC000CBF6FD710844B0FA80F040090290FFE78E
:104CD0000298C007002800F09D80FFE70499042097
:104CE00081F83500049800681021C4F2020188425E
:104CF00000F08180FFE7049800682821C4F20201D7
:104D0000884278D0FFE7049800684021C4F202018D
:104D1000884270D0FFE7049800685821C4F202016D
:104D2000884268D0FFE7049800687021C4F202014D
:104D3000884260D0FFE7049800688821C4F202012D
:104D4000884258D0FFE704980068A021C4F202010D
:104D5000884250D0FFE704980068B821C4F20201ED
:104D6000884248D0FFE70498006840F21041C4F23E
:104D7000020188423FD0FFE70498006840F22841D2
:104D8000C4F20201884236D0FFE70498006840F27E
:104D90004041C4F2020188422DD0FFE70498006828
:104DA00040F25841C4F20201884224D0FFE704983F
:104DB000006840F27041C4F2020188421BD0FFE754
:104DC0000498006840F28841C4F20201884212D07F
:104DD000FFE70498006840F2A041C4F20201884253
:104DE00009D0FFE70498006840F2B841C4F202011C
:104DF000884207D1FFE704980168086820F00100A5
:104E0000086006E004980168086820F00100086066
:104E1000FFE7E5E104980168086820F00E000860EB
:104E2000049800681021C4F20201884200F08180D9
:104E3000FFE7049800682821C4F20201884278D074
:104E4000FFE7049800684021C4F20201884270D054
:104E5000FFE7049800685821C4F20201884268D034
:104E6000FFE7049800687021C4F20201884260D014
:104E7000FFE7049800688821C4F20201884258D0F4
:104E8000FFE704980068A021C4F20201884250D0D4
:104E9000FFE704980068B821C4F20201884248D0B4
:104EA000FFE70498006840F21041C4F20201884212
:104EB0003FD0FFE70498006840F22841C4F20201A5
:104EC000884236D0FFE70498006840F24041C4F2BF
:104ED000020188422DD0FFE70498006840F2584153
:104EE000C4F20201884224D0FFE70498006840F22F
:104EF0007041C4F2020188421BD0FFE704980068A9
:104F000040F28841C4F20201884212D0FFE70498BF
:104F1000006840F2A041C4F20201884209D0FFE7D4
:104F20000498006840F2B841C4F20201884207D1F7
:104F3000FFE704980168086820F00100086006E0B7
:104F400004980168086820F001000860FFE70498F1
:104F5000016801201022C4F202029142019000F087
:104F60000381FFE70498016801202822C4F20202AD
:104F70009142019000F0F880FFE704980168012059
:104F80004022C4F202029142019000F0ED80FFE75E
:104F90000498016801205822C4F202029142019053
:104FA00000F0E280FFE70498016801207022C4F25B
:104FB00002029142019000F0D780FFE70498016857
:104FC00001208822C4F202029142019000F0CC80BC
:104FD000FFE7049801680120A022C4F20202914276
:104FE000019000F0C180FFE7049801680120B82219
:104FF000C4F202029142019000F0B680FFE70498EB
:105000000168012040F21042C4F202029142019074
:1050100000F0AA80FFE704980168012040F22842CE
:10502000C4F202029142019000F09E80FFE70498D2
:105030000168012040F24042C4F202029142019014
:1050400000F09280FFE704980168012040F2584286
:10505000C4F202029142019000F08680FFE70498BA
:105060000168012040F27042C4F2020291420190B4
:105070007AD0FFE704980168012040F28842C4F228
:105080000202914201906FD0FFE70498016801206D
:1050900040F2A042C4F202029142019064D0FFE7C4
:1050A00004980168012040F2B842C4F20202914221
:1050B000019059D0FFE704980168012045F20842A9
:1050C000C5F60202914201904ED0FFE704980168B4
:1050D000012045F21C42C5F602029142019043D0E4
:1050E000FFE704980168012045F23042C5F602024C
:1050F0009142019038D0FFE704980168012045F201
:105100004442C5F60202914201902DD0FFE7049877
:105110000168012045F25842C5F602029142019011
:1051200022D0FFE704980168012045F26C42C5F6E1
:1051300002029142019017D0FFE704980168012014
:1051400045F28042C5F60202914201900CD0FFE781
:10515000049800684AF66C31CAF2FD710844B0FA4E
:1051600080F040090190FFE70198C00728B3FFE7EE
:105170000498016E086820F4807008600498806DBF
:1051800003900498C06D00F01F010120884003992E
:1051900048600498416E806E48600498C06E58B1B3
:1051A000FFE70498C16E086820F4807008600498D6
:1051B000016F406F4860FFE7FFE70499012081F825
:1051C0003500FFE70499002081F83400FFE70498D8
:1051D000006D20B1FFE70498016D8847FFE7FFE706
:1051E000FFE700208DF81700FFE79DF8170006B0D5
:1051F00080BD00000000000080B590B00F9000203E
:105200000B9040F23000C2F20040006848F2B51145
:10521000C1F64E31A0FB0110800A0A900F98806DF4
:1052200009900F98806D0890099800680E90089872
:1052300000680D900F98016801201022C4F202024C
:105240009142079000F0A380FFE70F9801680120CA
:105250002822C4F202029142079000F09880FFE7F2
:105260000F98016801204022C4F202029142079087
:1052700000F08D80FFE70F98016801205822C4F2EA
:1052800002029142079000F08280FFE70F980168C8
:1052900001207022C4F202029142079077D0FFE70A
:1052A0000F98016801208822C4F2020291420790FF
:1052B0006DD0FFE70F9801680120A022C4F202021E
:1052C0009142079063D0FFE70F9801680120B82250
:1052D000C4F202029142079059D0FFE70F9801688B
:1052E000012040F21042C4F20202914207904ED0D7
:1052F000FFE70F980168012040F22842C4F2020241
:105300009142079043D0FFE70F980168012040F2D7
:105310004042C4F202029142079038D0FFE70F9852
:105320000168012040F25842C4F202029142079003
:105330002DD0FFE70F980168012040F27042C4F2BF
:1053400002029142079022D0FFE70F9801680120E6
:1053500040F28842C4F202029142079017D0FFE760
:105360000F980168012040F2A042C4F2020291426B
:1053700007900CD0FFE70F9800684FF64831CBF646
:10538000FD710844B0FA80F040090790FFE70798E4
:10539000C007002800F01385FFE70E980F99C96D2C
:1053A00001F01F01C8400007002840F1B080FFE76E
:1053B0000F9800681021C4F20201884200F0818039
:1053C000FFE70F9800682821C4F20201884278D0D4
:1053D000FFE70F9800684021C4F20201884270D0B4
:1053E000FFE70F9800685821C4F20201884268D094
:1053F000FFE70F9800687021C4F20201884260D074
:10540000FFE70F9800688821C4F20201884258D053
:10541000FFE70F980068A021C4F20201884250D033
:10542000FFE70F980068B821C4F20201884248D013
:10543000FFE70F98006840F21041C4F20201884271
:105440003FD0FFE70F98006840F22841C4F2020104
:10545000884236D0FFE70F98006840F24041C4F21E
:10546000020188422DD0FFE70F98006840F25841B2
:10547000C4F20201884224D0FFE70F98006840F28E
:105480007041C4F2020188421BD0FFE70F98006808
:1054900040F28841C4F20201884212D0FFE70F981F
:1054A000006840F2A041C4F20201884209D0FFE73F
:1054B0000F98006840F2B841C4F20201884207D157
:1054C000FFE70F980068006800F00400069006E00F
:1054D0000F980068006800F008000690FFE7069843
:1054E000A0B1FFE70F980168086820F00400086089
:1054F0000F98C06D00F01F0108208840099988604E
:105500000F99486D40F001004865FFE7FFE70E98EE
:105510000F99C96D01F01F01C840C007002800F0B5
:10552000A980FFE70F9800681021C4F202018842A9
:1055300000F08180FFE70F9800682821C4F2020183
:10554000884278D0FFE70F9800684021C4F202013A
:10555000884270D0FFE70F9800685821C4F202011A
:10556000884268D0FFE70F9800687021C4F20201FA
:10557000884260D0FFE70F9800688821C4F20201DA
:10558000884258D0FFE70F980068A021C4F20201BA
:10559000884250D0FFE70F980068B821C4F202019A
:1055A000884248D0FFE70F98006840F21041C4F2EB
:1055B000020188423FD0FFE70F98006840F228417F
:1055C000C4F20201884236D0FFE70F98006840F22B
:1055D0004041C4F2020188422DD0FFE70F980068D5
:1055E00040F25841C4F20201884224D0FFE70F98EC
:1055F000006840F27041C4F2020188421BD0FFE70C
:105600000F98006840F28841C4F20201884212D02B
:10561000FFE70F98006840F2A041C4F202018842FF
:1056200009D0FFE70F98006840F2B841C4F20201C8
:10563000884207D1FFE70F980068406900F08000BA
:10564000059005E00F980068006800200590FFE7CE
:10565000059870B1FFE70F98C06D00F01F010120A1
:105660008840099988600F99486D40F002004865AC
:10567000FFE7FFE70E980F99C96D01F01F01C840C1
:105680004007002840F1A980FFE70F98006810212B
:10569000C4F20201884200F08180FFE70F980068A1
:1056A0002821C4F20201884278D0FFE70F980068F1
:1056B0004021C4F20201884270D0FFE70F980068D1
:1056C0005821C4F20201884268D0FFE70F980068B1
:1056D0007021C4F20201884260D0FFE70F98006891
:1056E0008821C4F20201884258D0FFE70F98006871
:1056F000A021C4F20201884250D0FFE70F98006851
:10570000B821C4F20201884248D0FFE70F98006830
:1057100040F21041C4F2020188423FD0FFE70F98E7
:10572000006840F22841C4F20201884236D0FFE707
:105730000F98006840F24041C4F2020188422DD027
:10574000FFE70F98006840F25841C4F20201884216
:1057500024D0FFE70F98006840F27041C4F20201C4
:1057600088421BD0FFE70F98006840F28841C4F2DE
:105770000201884212D0FFE70F98006840F2A04172
:10578000C4F20201884209D0FFE70F98006840F296
:10579000B841C4F20201884207D1FFE70F980068C0
:1057A000006800F00200049005E00F9800680068AF
:1057B00000200490FFE7049870B1FFE70F98C06DD8
:1057C00000F01F0104208840099988600F99486DF6
:1057D00040F004004865FFE7FFE70E980F99C96D98
:1057E00001F01F01C840C006002840F1DE80FFE73D
:1057F0000F9800681021C4F20201884200F08180F5
:10580000FFE70F9800682821C4F20201884278D08F
:10581000FFE70F9800684021C4F20201884270D06F
:10582000FFE70F9800685821C4F20201884268D04F
:10583000FFE70F9800687021C4F20201884260D02F
:10584000FFE70F9800688821C4F20201884258D00F
:10585000FFE70F980068A021C4F20201884250D0EF
:10586000FFE70F980068B821C4F20201884248D0CF
:10587000FFE70F98006840F21041C4F2020188422D
:105880003FD0FFE70F98006840F22841C4F20201C0
:10589000884236D0FFE70F98006840F24041C4F2DA
:1058A000020188422DD0FFE70F98006840F258416E
:1058B000C4F20201884224D0FFE70F98006840F24A
:1058C0007041C4F2020188421BD0FFE70F980068C4
:1058D00040F28841C4F20201884212D0FFE70F98DB
:1058E000006840F2A041C4F20201884209D0FFE7FB
:1058F0000F98006840F2B841C4F20201884207D113
:10590000FFE70F980068006800F00800039006E0C9
:105910000F980068006800F004000390FFE7039808
:10592000002841D0FFE70F98C06D00F01F01102044
:105930008840099988600F98006800684003002833
:105940001AD5FFE70F98006800680003002809D403
:10595000FFE70F98006C20B1FFE70F98016C8847B4
:10596000FFE708E00F98806C20B1FFE70F98816C8B
:105970008847FFE7FFE716E00F9800680068C0055A
:10598000002807D4FFE70F980168086820F0080096
:105990000860FFE70F98006C20B1FFE70F98016CDB
:1059A0008847FFE7FFE7FFE7FFE70E980F99C96D0C
:1059B00001F01F01C8408006002840F12681FFE762
:1059C0000F9800681021C4F20201884200F0818023
:1059D000FFE70F9800682821C4F20201884278D0BE
:1059E000FFE70F9800684021C4F20201884270D09E
:1059F000FFE70F9800685821C4F20201884268D07E
:105A0000FFE70F9800687021C4F20201884260D05D
:105A1000FFE70F9800688821C4F20201884258D03D
:105A2000FFE70F980068A021C4F20201884250D01D
:105A3000FFE70F980068B821C4F20201884248D0FD
:105A4000FFE70F98006840F21041C4F2020188425B
:105A50003FD0FFE70F98006840F22841C4F20201EE
:105A6000884236D0FFE70F98006840F24041C4F208
:105A7000020188422DD0FFE70F98006840F258419C
:105A8000C4F20201884224D0FFE70F98006840F278
:105A90007041C4F2020188421BD0FFE70F980068F2
:105AA00040F28841C4F20201884212D0FFE70F9809
:105AB000006840F2A041C4F20201884209D0FFE729
:105AC0000F98006840F2B841C4F20201884207D141
:105AD000FFE70F980068006800F01000029006E0F1
